:020000021000EC
:10F00000000001209DA00200E5A00200E7A0020090
:10F01000E9A00200EBA00200EDA002000000000049
:10F02000000000000000000000000000EFA002004F
:10F03000F1A0020000000000F3A00200F5A0020011
:10F04000DD550200F7A0020091630200716B02001F
:10F05000F7A00200F7A002007D5902003D5B02000C
:10F06000F7A00200F7A00200F7A00200F7A002003C
:10F07000F7A00200F7A00200F7A00200F7A002002C
:10F08000F7A00200CD040200F7A00200F7A00200E2
:10F0900089050200F7A00200016F0200F7A002003C
:10F0A000F7A00200F7A00200F7A00200F7A00200FC
:10F0B000F7A00200F7A0020000000000000000001E
:10F0C000F7A00200F7A00200F7A00200F7A00200DC
:10F0D000F7A00200F7A00200F7A002000000000065
:10F0E0000000000000000000000000000000000020
:10F0F0000000000000000000000000000000000010
:10F1000000000000000000000000000000000000FF
:10F1100000000000000000000000000000000000EF
:10F1200000000000000000000000000000000000DF
:10F1300000000000000000000000000000000000CF
:10F1400000000000000000000000000000000000BF
:10F1500000000000000000000000000000000000AF
:10F16000000000000000000000000000000000009F
:10F17000000000000000000000000000000000008F
:10F18000000000000000000000000000000000007F
:10F19000000000000000000000000000000000006F
:10F1A000000000000000000000000000000000005F
:10F1B000000000000000000000000000000000004F
:10F1C000000000000000000000000000000000003F
:10F1D000000000000000000000000000000000002F
:10F1E000000000000000000000000000000000001F
:10F1F000000000000000000000000000000000000F
:10F2000000B583B0684602210AF00CFE03B05DF839
:10F2100004FB00BF70B50D4604460BF03FFC2A46C8
:10F22000836801212046BDE870400BF027BC00BF79
:10F23000704700BF0AF0C4BD0AF0C4BD0AF004BFA5
:10F240000AF01EBF0378012B04BF014A13707047F8
:10F25000382200202DE9F0415C48C6B00C46174624
:10F260001D4607F089F8002831D1002C33D006AEB6
:10F270002368574A30464FF480710BF027FD002871
:10F2800025DB4C9B0446062B00F29E80DFE803F052
:10F290007887915B6947050006AE2A1D92E8041144
:10F2A00029692B686D6904950092039130193A46DB
:10F2B000CDF80480CDF808C0C4F580710BF006FDD0
:10F2C0000546002D03DB2C44B4F5807F18D90020BF
:10F2D00046B0BDE8F0814C9B0024062B10D801A25B
:10F2E00052F823F081F301009DF30100B1F3010016
:10F2F00045F3010061F301001DF3010099F20100E3
:10F3000006A9224633480BF0DFFBE2B22F48314911
:10F3100006F07EFFB0FA80F04009D9E706AE6A68D1
:10F32000E9682B68D5F808C02D6903950092029111
:10F3300030193A46CDF804C0C4F580710BF0C6FC14
:10F340000546BEE706AE6A68A9682B68009201917F
:10F3500030193A46C4F580710BF0B8FC0546B0E7A9
:10F3600006AE6A68A9682B68ED6802950092019163
:10F3700030193A46C4F580710BF0A8FC0546A0E7A9
:10F3800038460BF0D5FC0319FF2B054699D806AB80
:10F39000394618192A460BF097FB92E706AE2B6800
:10F3A00030193A46C4F580710BF090FC054688E7A9
:10F3B00006AE6A682B68009230193A46C4F580712F
:10F3C0000BF084FC05467CE700257CE77C200020D0
:10F3D0001CBB0200382100202DE9F04FC5B01D46AE
:10F3E00058484F9F002914BF0A23002314460E4695
:10F3F000039306F0C1FF00287DD1002D7FD004AB20
:10F400000193519BDDF84081FE182024039A019955
:10F41000831803F1310902930B4603448944002AFF
:10F4200000F0898003EB020C03F8014B6345FBD12C
:10F43000454B09F10101D3F800A00CF1330E0CF19A
:10F4400003030CE003F8034C03F8024C03F8014CEF
:10F450000333734501F8014C01F101012ED0AE4296
:10F46000F0D9AF4295BFEA1B4E9A18F80220525DC0
:10F4700003F8014C10115FFA80FB092802F00F001D
:10F48000D4BF0BF1300B0BF1370B092803F803BC89
:10F4900094BF303037300AEB020B03F8020C9BF8B4
:10F4A0000100033310F0970F08BF2E22734501F8B7
:10F4B000012C05F1010501F10101D0D1029B019957
:10F4C000224803F1430A0D220A2389F8102089F803
:10F4D000113052468CF830400BF0F6FA5FFA8AF29F
:10F4E00018481A4906F094FE28B9164806F044FF59
:10F4F00008B9AE428AD8284645B0BDE8F08FE6B1DB
:10F5000004A83368124A01904FF480710BF0DEFBBF
:10F510000028F0DB064620460BF00AFC019BC228BF
:10F5200028BFC22080460246214698190BF0CCFA2B
:10F5300008EB060065E79C467AE704AB2E4601938C
:10F54000E9E700BF7C200020A02000203821002017
:10F550001CBB0200F0B51A4F3B7889B006461BB1C0
:10F56000184B1B78834228D0174D0FCD6C460FC423
:10F5700095E80F004FF0000E84E80F001F250521CD
:10F5800007224FF0EB7311480391032402928DF888
:10F5900014E000950194069306F0B4FD002E0C4A89
:10F5A0000A4818BF0022694606F0BCFC18B9054A93
:10F5B000012316703B7009B0F0BD002009B0F0BD0A
:10F5C0003A22002039220020FCBA02007C200020D0
:10F5D00045F201000048704755F2010000487047AD
:10F5E000D9F3010038B50020FFF7B4FF044668B92D
:10F5F000FFF7F0FF0546FFF7F1FF054BFF22C3F8C9
:10F6000010541C605C60C3F814049A60204638BD36
:10F610003C2200200120FFF79DBF00BF2DE9F043F1
:10F6200083B002AB4FF0000903F8019D254C07465B
:10F6300018460E46A56801F05DFBA2686368D4F821
:10F64000008013440133C8EB0303012B07D80BBB25
:10F650009DF8070001F076FB03B0BDE8F08308F1E8
:10F6600001039DF80700236001F06CFB01220023D9
:10F6700062F3010369F3820308EA050567F3C50332
:10F6800004EB850469F3891366F39F23E36003B0F9
:10F69000BDE8F08301214B4661F3010369F3820366
:10F6A000052161F3C50302EA0802074904EB82025F
:10F6B00069F3891308F1010561F39F232560D36085
:10F6C000C6E700BF3C22002024BB02002DE9F04722
:10F6D00082B002AB4FF0000903F8019DDFF8B4805F
:10F6E0000746184615460E46D8F8084001F002FBBA
:10F6F000D8F80820D8F80430D8F800A01344013313
:10F70000CAEB0303022B07D853BB9DF8070001F097
:10F7100019FB02B0BDE8F0870AF102039DF807006B
:10F72000C8F8003001F00EFB0122002362F3010350
:10F730000AEB020169F3820367F3C5030AEA040ACC
:10F740000C4008EB8A0A62F3891308EB840866F31D
:10F750009F23CAF80C30C8F80C5002B0BDE8F087FF
:10F7600001214B4661F3010369F38203052161F333
:10F77000C50302EA0A02064808EB820269F389130C
:10F780000AF1010160F39F23C8F80010D360BCE7C1
:10F7900024BB02003C2200202DE9F04F83B002ADD3
:10F7A0004FF0000A05F801AD2C4C8146284617465B
:10F7B0001E468846A56801F09DFAA2686368D4F8E1
:10F7C00000B013440133CBEB0303032B07D873BB07
:10F7D0009DF8070001F0B6FA03B0BDE8F08F0BF119
:10F7E00003039DF80700236001F0ACFA0122002317
:10F7F00062F301030BF102006AF382035A4469F3D6
:10F80000C50302210BEA050B2A40054004EB8B0BD4
:10F8100004EB820261F3891304EB850468F39F23F0
:10F82000CBF80C30D760E66003B0BDE8F08F012163
:10F83000534661F301036AF38203052161F3C503B3
:10F8400002EA0B02064804EB82026AF389130BF109
:10F85000010160F39F232160D360B9E73C220020BF
:10F8600024BB02002DE9F04F83B002AE4FF0000A36
:10F8700006F801AD314C8146304617461E46A56854
:10F88000884601F037FAA2686368D4F800B01344E0
:10F890000133CBEB0303042B07D8BBBB9DF8070058
:10F8A00001F050FA03B0BDE8F08F0BF104039DF8AE
:10F8B0000700236001F046FA0122002362F30103EE
:10F8C0006AF382030BEB02010BF1030E0BF1020250
:10F8D00069F3C50303200BEA050B04EB8B0B60F304
:10F8E000891368F39F2329402A400EEA0505CBF8C7
:10F8F0000C3004EB810104EB82020C9BCF6004EB23
:10F900008504D660E36003B0BDE8F08F0121534663
:10F9100061F301036AF38203052161F3C50302EA7F
:10F920000B02074804EB82026AF389130BF1010111
:10F9300060F39F232160D360B0E700BF3C2200202A
:10F9400024BB02002DE9F0474B4D95E80C00934293
:10F950008AB06FD0A86804E0C4F3891202EB945215
:10F96000134400EA030605EB86020133D46814F061
:10F970000302F1D0022A28D0C4F38312C4F3952CD9
:10F98000002A75D00DF1100E76469F1803EA00018B
:10F9900005EB81010133C96846F8041BBB42F5D170
:10F9A0000092C4F3C20062467346D5F81044324E4A
:10F9B0000021A04738B16F602868C01B18BF012024
:10F9C0000AB0BDE8F0877768F6E703F1010A20EA9C
:10F9D0000A010340013105EB830389004FEA945883
:10F9E0008845DA68DFF890E0C4F3891326D9A9B313
:10F9F0000AEA000C5FFA81F90EEB8C0CC9EB0801E6
:10FA00000CF10C0C0EF10C00C9B202900391CDF870
:10FA100000C0CDF80490C4F3C2000021D5F81474DE
:10FA2000B847404520D005EB860660F38F14F4609C
:10FA30006F68C1E700200AB0BDE8F08700EA0A005D
:10FA40000EEB80000C308DE801010021DEF814C4BB
:10FA500002910391C4F3C200E047E2E70EF10C0CFF
:10FA600008465FFA88F9D0E703300AEB9007A2E76F
:10FA70001F460DF1100E93E73C2200202DE9F047C0
:10FA8000334B344D186882B02A460346002410F8E0
:10FA9000241005F824105978517099789170013428
:10FAA000D978D170042C03F1040302F10402EED1E1
:10FAB000294A2A4E2A4F02AD01AB114611F8010B1B
:10FAC00003F8010BAB42F9D1A30724D09DF804E061
:10FAD0009DF805909DF806809DF807C012F80CACC3
:10FAE00012F80B0C12F80A1C12F8093C01348EEAC9
:10FAF0000A0E89EA000088EA01018CEA03032C2C33
:10FB000082F804E050719171D37102F10402D3D1F3
:10FB100002B0BDE8F0879DF806109DF804E09DF85E
:10FB2000053016F801909DF8070016F80EC0F35C3A
:10FB300016F800808DF807C0A1088DF8068017F828
:10FB400001E08DF8059083EA0E0E8DF804E0C5E71C
:10FB500008270020542600206026002030BB020029
:10FB600030BD02000B4B0C4A1B6870B402EB001056
:10FB700003F110061D1D014611F8014B1A78624071
:10FB800003F8012BAB42F7D1B34200F10400F1D1ED
:10FB900070BC704704270020542600202DE9F04750
:10FBA000124B1B6893F8019093F805A093F80D8011
:10FBB00093F809C09F7893F80AE09D799E7BD878E6
:10FBC000DC7BD979DA7A83F801A083F80D9083F889
:10FBD000098083F805C083F802E09F729E719D73CF
:10FBE000DC70D871D972DA73BDE8F0870427002081
:10FBF0002DE9F047124B1B6893F80D9093F809A07C
:10FC000093F8018093F805C09F7893F80AE09D79F6
:10FC10009E7BD878DC79D97BDA7A83F80DA083F8DB
:10FC2000019083F8058083F809C083F802E09F7291
:10FC30009E719D73DC70D873D972DA71BDE8F0875C
:10FC4000042700202DE9F04F002087B0FFF78AFF3E
:10FC50004B4BDFF830811B680293012201929A1806
:10FC600004921A461032043303931646029B0398FB
:10FC700005931A46002312F8231018F8011002F811
:10FC800023100133042BF6D101328242F2D1FFF767
:10FC900085FFDDF810B0DDF808A01BF8014C9AF8DC
:10FCA00001209AF802309AF8035084EA0200C2094F
:10FCB00051000A445D40454002EBC20285EA04035C
:10FCC00082EA40025A400BF8012C9AF802709AF826
:10FCD00001E09AF803308EEA0700C1094A0087EA7A
:10FCE000030C0A445C404FEADC1102EBC2024FEA0B
:10FCF000D41982EA40004A0011444FEA490285EAD9
:10FD00000E0E6F405D4009EB020301EBC10103EBF6
:10FD1000C30381EA4C0183EA44038EEA00004F40AA
:10FD20006B408AF801008AF802708AF803300AF101
:10FD3000040AB2450BF1040BAFD1019C2046FFF73A
:10FD400011FF23460133DBB20A2B01938ED1DDF87C
:10FD500014900399002319F8232018F8022009F8B9
:10FD600023200133042BF6D109F101098945F1D192
:10FD7000FFF714FF0A2007B0BDE8F04FFFF7F2BE0F
:10FD80000427002030BB02002DE9F04F0A2091B07B
:10FD9000FFF7E8FE964BDFF85CB21B680C93092274
:10FDA0000B921A1D0D925A1C10330F920A93FFF7F3
:10FDB0001FFF0C9B0D980E931A46002312F8231078
:10FDC0001BF8011002F823100133042BF6D1013285
:10FDD0008242F2D10B98FFF7C5FE0F9B0C99079357
:10FDE000079B887813F8013C4A780746C878019049
:10FDF000D809D5094FEA400E1C461646FB096A0091
:10FE000086440198049715445A00C009134403EB33
:10FE1000C303420010440EEBCE0E83EA47025FFAA2
:10FE200082FC8EEA440E019A03965FFA8EFE00EB86
:10FE3000C0004FEADE13674680EA420005EBC505C5
:10FE4000C0B285EA46055A00FE091A447700C30984
:10FE5000374402EBC2025E00EDB282EA4E021E445B
:10FE600002945FFA82FAEC0906EBC606CDF814C0DC
:10FE70004FEADA124FEA440C86EA4006F6B26444CE
:10FE80004FEA420C069662444FEAD61C029E059B3E
:10FE90008AEA060604EBC40407EBC707089684EA5F
:10FEA0004504049E87EA4307FFB2E4B202EBC202B4
:10FEB000E3098AEA0E0982EA4A0287EA060A029EF2
:10FEC0004FEA43088EEA060E4344039ECDF824E031
:10FED0004FEAD71803EBC30389EA0A094FEA480E31
:10FEE00085EA060A83EA440365407440019EF044B3
:10FEF0004FEA4C0EF444B646069E86EA0E0E85EA9C
:10FF00000E0586EA000E019E7040059E89EA0A09E8
:10FF100084EA0E0487EA060AB646049E8EEA060EB6
:10FF2000089E86EA0A0A099E7440069E08EBC808E5
:10FF30000CEBCC0CDBB285EA0E0588EA47088CEAAC
:10FF4000460C029E019FD2B25FFA88F85D408AEAB1
:10FF500000005FFA8CFC89EA02095040544088EAAC
:10FF600005057240039E8CEA050589EA03095C4099
:10FF700088EA000087EA0C0E73408CEA040489EAE0
:10FF80000809049E6A408CEA000C079D8CEA030372
:10FF900089EA0E0905F8019C86EA08088B702B1D7A
:10FFA00084EA080407930A9B4A70CC700431994292
:10FFB0007FF416AF0B9B013B13F0FF030B937FF411
:10FFC000F6AEFFF715FE0E9A0D98002312F82310D7
:10FFD0001BF8011002F823100133042BF6D1013273
:10FFE0008242F2D1002011B0BDE8F04FFFF7BABD58
:10FFF0000427002030BC020038B5431E541E0F30C9
:020000022000DC
:1000000013F8015F04F8015F8342F9D1044B0548FE
:1000100019600260FFF732FDBDE83840FFF712BEFD
:10002000082700200427002038B5431E541E0F3037
:1000300013F8015F04F8015F8342F9D1044B0548CE
:1000400019600260FFF71AFDBDE83840FFF79CBE5B
:1000500008270020042700202DE9F04FDFF8A4A096
:100060009AF8003083B0002B47D0DFF894B0DFF867
:100070009880DFF898900024012705E001349AF871
:100080000030E4B2A34238D926B2D8F80050DBF8E9
:10009000003015F8360007FA00F1194205EBC60CDE
:1000A000ECD0174ACDF804C023EA0103136005F031
:1000B0005BFC15F83650D9F80030DDF804C007FABB
:1000C00005F10B4000FA05F18B42D7D19CF80110E5
:1000D000DCF80430A1F10101B1FA81F14909091AF2
:1000E0002846B1FA81F14909002BC7D0984701345D
:1000F0009AF80030E4B2A342C6D803B0BDE8F08F4E
:100100003C2700201427002010270020382700203B
:1001100070B50546124800F0D1FD40B9114E0124DA
:100120003368AC401C4203D023EA0404346070BD41
:10013000284605F019FC0C4A136860B1234313608C
:1001400033680A4A064811681C4334600022BDE83F
:10015000704000F059BD23EA04031360F0E700BFCC
:10016000182700203C270020382700200C270020DB
:10017000F0B5042A85B0174602D8072005B0F0BDB7
:100180000191054605F004FB0199002830D01C4C74
:10019000DFF888E01B481C4A1C4B256000264C1EDB
:1001A00007608EF8001016601E60E4B2032709B9DC
:1001B00018E01C4623B205EBC30215F83300937810
:1001C000134A8DF80D3003A98DF80C708DF80E6070
:1001D0008DF80F6005F0E6FA631E0028CED1DBB281
:1001E000002CE6D10B4A0C48002100F0FBFCC5E7CF
:1001F000019105F089FA01990028C8D0BEE700BF37
:10020000102700200C270020382700203C27002042
:10021000110102005900020030BE02001427002024
:1002200070B5084D2B785BB1074E0024336801216F
:1002300013F8340005F036FB2B780134A342F5D8CF
:10024000002070BD142700201027002000B585B0C5
:1002500000230390194644F2010001AAADF80430CE
:10026000029300F003F805B05DF804FB08B5012027
:100270000C49FFF7D3F9FFF7CDF9FFF763FB00282F
:10028000FBD103200849FFF7C9F9BFF34F8F074996
:10029000074BCA6802F4E0621343CB60BFF34F8F91
:1002A00000BFFDE734BE020044BE020000ED00E0E6
:1002B0000400FA0512F0030301D0072070472DE96E
:1002C000F0414C1C0546DFF83C800B48DFF838C095
:1002D000DFF838E0094F0A4E88F80030E400A4B295
:1002E00014440370CCF80040CEF8002018463D803E
:1002F0003180BDE8F08100BF4A2700204827002058
:100300004C2700204B2700204427002040270020B6
:100310002DE9F041284D2B888B4282B00C4603D248
:10032000092002B0BDE8F081064602A84FF000089F
:1003300000F8018D174600F0DDFC204B204A2148D3
:10034000197813780088DBB2834238BF0133C9B211
:1003500038BF5FFA83F841451CD092F800801378CB
:10036000DBB283423ABF0133DBB200239DF80700C2
:10037000137000F0E7FC144A5FFA88F80FFA88F36C
:10038000126842F8337002EBC30706B144B900208B
:10039000B880C6E79DF8070000F0D4FC0420C0E751
:1003A0000A4B28881B68314600FB083022460AF0B9
:1003B0008BFBBC800020B4E7482700204A270020A0
:1003C0004B2700204C2700204027002044270020F6
:1003D0002DE9F047174F184C3A7823789A4226D0E7
:1003E000DFF85C90DFF85C80144EDFF85CA03B78AF
:1003F000D9F800203088D8F80050DBB20FFA83FC1F
:1004000002EBCC0100FB0350898852F83C3098473E
:100410003B78BAF80020DBB29A4203F101038CBFAB
:10042000DBB200233B703A7823789A42DFD1BDE8F3
:10043000F08700BF4A2700204B27002048270020D4
:1004400040270020442700204C270020082910B511
:10045000044602D00020FFF7F9FE23686068BDE87B
:1004600010401847F0B583B002AB002503F8015DDA
:10047000144C064618460F4600F03CFC6278A07803
:100480002178531CDBB2984208BF2B46994212D008
:1004900002EB420204EBC2029DF80700177196605E
:1004A000637000F04FFC084B4FF480122846C3F8ED
:1004B000002103B0F0BD9DF8070000F043FC0420CC
:1004C000F7E700BF5827002000E100E0F0B5264B19
:1004D000264A1B680025C2F8405183B0C2F8445137
:1004E000C2F84851C2F84C51C2F80051C2F8045148
:1004F00013B31F49D2F804250C68141B1A6824F0A2
:100500007F44A2422F4609D8197CDE69A41A1544FB
:10051000A1B91EB133461A68A242F5D9154B164946
:100520001A780B789A4218D01449154A41F823508A
:100530004FF48013C2F8003103B0F0BD99691F7405
:1005400001915B690F4A009368460821FFF7E0FEBE
:100550000028DED0FFF77AFEDBE7531CDBB2022B6C
:1005600008BF00230B70DFE7542700200010014074
:1005700050270020652800206428002068280020DB
:1005800000E100E04D0402002DE9F04F7A4A7B497A
:10059000137809787A48994289B0066800F0E181B9
:1005A0000133DBB2022B08BF002376491370764A71
:1005B0000391084652F82310036871488A190025F0
:1005C00022F07F420260AE462846A3B11A688A42F2
:1005D00000F2CE81DC68C3F800E0891A1044DA69C1
:1005E00034B1871927F07F47DD619C605F601D464D
:1005F0001346002BEAD1039A059313600123069357
:10060000624BDFF890911B680793614BDFF888819C
:100610001B7802935A4B059CD3F800E0039B1F689C
:100620000023BB462F460193CA461E464FF0010CDD
:100630003FB37B68BA683D46FF69CEEB030121F00A
:100640007F4141453DD80A442A606E60AE6085F81E
:1006500010C0EE61002C5FD02968226891423AD91F
:10066000204603E01A688A423CD21846C369891AB8
:10067000002BF7D1EB6129602346C5611C46002F92
:10068000D7D199F8001099F801308B4200F086809C
:100690004B1C01EB410109EBC1019AF802208D6866
:1006A000DBB29A428AF800300B7908BF8AF80070F2
:1006B000022B3FD0032B33D0012B1AD023461C46EC
:1006C000DDE7C3EB0E0323F07F4393423ABFD31A17
:1006D0002B602E60B9E7521A2B462260AB46EC61C4
:1006E0001C46CCE7521A1A60EB6129602346C561AB
:1006F000C4E72B7C0493002BE0D1CB686B600A69C4
:10070000AA604869E86010318968A96102990029E6
:1007100093D0049B6B6090E72B46AB461C46AEE73C
:100720000CB9CBE71C46E3692674002BFAD19B4633
:100730001C46A4E74CB1A542234603D105E19542EE
:1007400007D01346DA69002AF9D123462E741C46D5
:1007500095E79D4200F0F980E9692868D961002990
:10076000F3D023460A6802440A60019A2E74A34219
:1007700018BF01220192EAE76528002064280020C2
:100780005027002054270020682800209C200020AB
:100790006628002058270020FEFF7F00039B9DF85D
:1007A0000820C3F800B0744BC3F800E0734B1A7014
:1007B000019B1BB9059BA34200F03981002C00F07E
:1007C000BE806F4D6C4BD5F804051B686D4ED4F898
:1007D00000E03178C21A22F07F420332002950D162
:1007E000694CDFF8ACC14FF480314FF40038C5F8E4
:1007F00044130127C5F80413C4F88081C4F80080AD
:10080000624C2F602F21246800BF00BF00BF00BFD3
:1008100000BF00BF00BF00BF64452FD000BF00BFB6
:1008200000BF00BF00BF00BF00BF00BF00BF00BFD0
:1008300000BF00BF00BF00BF00BF00BF00BF00BFC0
:1008400000BF00BF00BF00BF00BF00BF00BF00BFB0
:1008500000BF00BF00BF00BF00BF00BF00BF00BFA0
:1008600000BF00BF00BF00BF00BF00BF00BF00BF90
:1008700000BF00BF00BF00BF00BF00BF0139C3D130
:10088000377072452CBF9A1803EB0E023C4922F0D8
:100890007F43C1F84035D1F80425121A1B1A22F003
:1008A0007F4223F07F4303329A4248D9D1F804357E
:1008B000364AC1F84035126835492F2300BF00BFC2
:1008C00000BF00BF00BF00BF00BF00BF8A422FD0E3
:1008D00000BF00BF00BF00BF00BF00BF00BF00BF20
:1008E00000BF00BF00BF00BF00BF00BF00BF00BF10
:1008F00000BF00BF00BF00BF00BF00BF00BF00BF00
:1009000000BF00BF00BF00BF00BF00BF00BF00BFEF
:1009100000BF00BF00BF00BF00BF00BF00BF00BFDF
:1009200000BF00BF00BF00BF00BF00BF00BF00BFCF
:10093000013BC3D1144B4FF40032C3F800210F4ADE
:100940000023137009B0BDE8F08FD4F81CB0BBF1E0
:10095000000F21D0D96918685B4600297FF402AFE7
:1009600003E70C4B039300251B680593069547E6A8
:10097000521A1A603FE600BF502700206628002068
:10098000001001407028002000E100E09C200020C1
:100990000024F4005427002007992B4A0846C2F887
:1009A00008C02A492F2200BF00BF00BF00BF00BF00
:1009B00000BF00BF00BF88422FD000BF00BF00BFF4
:1009C00000BF00BF00BF00BF00BF00BF00BF00BF2F
:1009D00000BF00BF00BF00BF00BF00BF00BF00BF1F
:1009E00000BF00BF00BF00BF00BF00BF00BF00BF0F
:1009F00000BF00BF00BF00BF00BF00BF00BF00BFFF
:100A000000BF00BF00BF00BF00BF00BF00BF00BFEE
:100A100000BF00BF00BF00BF00BF013AC3D1D9690A
:100A2000186841B1DE460122734602929AE6069B9F
:100A3000002B84D0C2E601231A4602938E468B46D1
:100A40000B4601922E7482E6001001400024F4004F
:100A50005A4B5B4A2DE9F0434FF48030594E5A4CC3
:100A60004FF400310125C2F88010C3F848032F214C
:100A7000C3F808035D6030680E4600BF00BF00BFCA
:100A800000BF00BF00BF00BF00BFA0422FD000BF0B
:100A900000BF00BF00BF00BF00BF00BF00BF00BF5E
:100AA00000BF00BF00BF00BF00BF00BF00BF00BF4E
:100AB00000BF00BF00BF00BF00BF00BF00BF00BF3E
:100AC00000BF00BF00BF00BF00BF00BF00BF00BF2E
:100AD00000BF00BF00BF00BF00BF00BF00BF00BF1E
:100AE00000BF00BF00BF00BF00BF00BF00BF013E8E
:100AF000C3D19D6000BF00BF00BF00BF00BF00BFEB
:100B000000BF00BFA0422FD000BF00BF00BF00BF8A
:100B100000BF00BF00BF00BF00BF00BF00BF00BFDD
:100B200000BF00BF00BF00BF00BF00BF00BF00BFCD
:100B300000BF00BF00BF00BF00BF00BF00BF00BFBD
:100B400000BF00BF00BF00BF00BF00BF00BF00BFAD
:100B500000BF00BF00BF00BF00BF00BF00BF00BF9D
:100B600000BF00BF00BF00BF0139C3D11749DFF884
:100B70006490DFF86480DFF864C0DFF864E0144E4E
:100B800000204FF48015E0240B278CF800008EF82D
:100B90000000087048708F7089F80000C8F80000E5
:100BA000C2F8805182F814431560C3F8080582F832
:100BB0001143D3F804353360BDE8F08300100140E1
:100BC00000E100E09C2000200024F40058270020D1
:100BD000502700207028002054270020652800207E
:100BE00064280020074B9B780BB9082070473AB166
:100BF00030B10368187C0028F7D159745A617047E6
:100C000007207047582700202DE9F043284CA3788F
:100C100083B01BB9082003B0BDE8F0830028F9D0E9
:100C2000042903D8072003B0BDE8F0834369002BF3
:100C3000F0D0064602A8737C0025012B00F8015D68
:100C40000CBF8946A94690460F4600F053F86378DA
:100C5000A07821785A1CD2B2904208BF2A4691420D
:100C60001FD003EB430304EBC30319464FF0010EFF
:100C700041F8086F0F4883F804E0D0F804654E602F
:100C80008F609DF80700C3F81490C3F81880627055
:100C900000F058F8084B4FF480122846C3F80021A2
:100CA000B9E79DF8070000F04DF80420B3E700BF56
:100CB000582700200010014000E100E0074B9B781E
:100CC0000BB9082070470028FBD04369002BF8D0EF
:100CD000002303740221FFF7C5BB00BF5827002083
:100CE000014BD3F80405704700100140401A20F072
:100CF0007F407047F0B4EFF3108472B60E4B9A68E1
:100D0000B2B90E4901259D60D1F880700C4D2E4678
:100D10003D401D60C1F88060D1F884505D604FF0A7
:100D2000FF33C1F88430027004B962B6F0BC70477A
:100D300001230370F8E700BFB43A002000E100E0AF
:100D4000FC06FFBD094B9A6872B168B910B4EFF3A5
:100D5000108272B606491C680C605C684C60986032
:100D600002B962B65DF8044B704700BFB43A002088
:100D700000E100E02DE9F04F83B00CAC94E8100CDA
:100D80000F9D804678B108689042894616460AD27F
:100D90001F46002B41D0BAF1000F04D01DB160B145
:100DA000002C3DD1B6BB09F0F3FD28464146002C8E
:100DB00050D1D8470023C9F80030A64209D911E024
:100DC000A41BD047A64237440CD8D9F80030002BDA
:100DD000E9D1B44228463946F2D1A41BD847A642ED
:100DE0003744F2D9B4B1D9F80000351AA54228BF6A
:100DF0002546394640442A4609F066FED9F80000E7
:100E000028448642A4EB05042F44C9F80000CAD93F
:100E1000002CEAD103B0BDE8F08F002CBBD0C2E7B4
:100E2000331AA34228BF23461A4639464044019349
:100E300009F04AFE019BD9F800201A449642A4EB1F
:100E400003041F44C9F80020AFD0A642CAD8002A24
:100E5000BFD0A8E7D047ADE72DE9F84F0A9E0B9D1C
:100E6000DDF834808346002848D00F6897428946D1
:100E7000924643D21C46002B3ED00C9B002B3DD00B
:100E8000B8F1000F3AD025B32FB3AF42BE4628BF0A
:100E9000AE46C7EB0A03BEF1000F2BD02046721EF0
:100EA0000BEB030400EB0E0310F8011B14F801CB4D
:100EB00098428CEA010102F8011FF5D1D9F80070BF
:100EC000CEEB0707B5EB0E05C9F8007076441C465B
:100ED000DAD1BDE8F88F0C9B4046594698473B460F
:100EE0005746AF42BE4628BFAE46C9F800A0BEF185
:100EF000000FD3D12346E3E7002DBED009F048FD13
:100F00002DE9F84F0A9E5EB3994693460F468046F8
:100F10004FF0000A0CE062191DB95C4508BF4FF0A4
:100F2000010A5A4514D03A68361B22443A6017D059
:100F30003D68C5EB0B04B44228BF3446BAF1000F3C
:100F4000E9D108EB05004946224609F0C8FDE2E771
:100F50000B9B0C98414698470023361B3B60E7D11A
:100F6000BDE8F88F2DE9F04F87B0129D8DF817304E
:100F7000012D9DF840A0139C149E37D017D3022D4D
:100F800081468846174615D101250194029403969F
:100F900000950DF11703FFF7EDFE00950194029403
:100FA0000396484641463A4611ABFFF7E3FE07B0C9
:100FB000BDE8F08F4FF0010B0DF11703019402947F
:100FC0000396CDF800B0FFF7D5FE9DF844305345A9
:100FD0001ED0023D00950194029653464846414674
:100FE0003A46FFF78DFFCDF800B0D7E79DF81770B0
:100FF0009DF844E0009506AB8EEA070503F8015D15
:10100000019402940396FFF7B5FE07B0BDE8F08F98
:10101000013D009501940296484641463A46FFF745
:101020006FFFC4E790E80A002DE9F0478268C468C2
:1010300003F47F0A02F47F0904F07F4502F07F4643
:1010400001F07F4E03F07F4704F47F0801F47F0C2A
:101050004AEA0E0E49EA070702F47F4A04F47F4980
:1010600048EA06084CEA050C01F47F4603F47F4584
:101070004EEA0A0EE4B247EA0907C9B2D2B248EA18
:101080000606DBB24CEA05054EEA04043943334355
:101090002A43046041608360C260BDE8F08700BFFE
:1010A0002DE9F0470268C3688168446803F47F0A49
:1010B00002F47F0901F07F4601F47F0802F07F4CC3
:1010C00004F07F4E04F47F0703F07F454AEA0C0CDE
:1010D00049EA0E0E01F47F4A03F47F49374348EA98
:1010E000050504F47F4602F47F484CEA0A0CE4B29A
:1010F0004EEA090EC9B247EA0807D2B2DBB235435D
:101100004CEA04044EEA01013B432A430460416077
:101110008360C260BDE8F08700F08032D20902EB44
:10112000420200F07F3302EBC20282EA430202F085
:101130008033DB0903EB430302F07F3103EBC3038E
:1011400083EA410303F08031C90910B401EB410186
:1011500003F07F3480EA440401EBC10161404B405D
:101160005040584080EA31244A4084EA326080EAA4
:1011700033405DF8044B70472DE9F04F83B0C0F366
:1011800007234FF000080093C3B24FEA106AC0F380
:10119000074B0193424645464746C146009B89EAB4
:1011A0000B0089EA030E019BC0B289EA0A045FFAC8
:1011B0008EFE89EA030300F1FF3CE4B2DBB22CEAC5
:1011C00000000EF1FF3C661E2CEA0E0E03F1FF3C00
:1011D00026EA04042CEA030311F8096044F3C0145E
:1011E00040F3C0104EF3C01E43F3C013F6B2E4B296
:1011F000C0B25FFA8EFEDBB209F1010927EA0407EB
:1012000025EA00053440304022EA0E0228EA0308AD
:1012100006EA0E0EB9F5807F06EA030647EA0407E0
:1012200045EA00054EEA020246EA0808B6D128045B
:1012300040EA076747EA080040EA022003B0BDE839
:10124000F08F00BF2DE9F047864697085EF8046BE3
:1012500006F101064FEA860610D001EB870C4D78A7
:101260000B78CC788A782D0445EA03632343043154
:1012700043EA0223614540F8043FF0D1BE42B8463C
:1012800029D907F18044013C164D0EEB8404F14648
:1012900000224FF0010A0DE092B1062F01D9042A75
:1012A0001BD0013259F8043B08F101085840B04501
:1012B000206010D0BA4254F8040BEDD10AF1010AB3
:1012C00009494FEA3060FFF757FF15F80A3001224D
:1012D00080EA0360E6E7BDE8F0870349FFF74CFFCB
:1012E0000522DFE760C0020060BE020038B50B4D8A
:1012F000044629460068FFF73FFF294620606068E2
:10130000FFF73AFF29466060A068FFF735FF2946DE
:10131000A060E068FFF730FFE06038BD60BE02000B
:101320002DE9F04FD0F800E02EF004030A2B89B02D
:101330000446154604D0BEF10C0F01D009F028FB7D
:10134000CB794A790193CB7A08794E780293CB7B9B
:1013500091F809B091F8009003931204019B91F861
:1013600008804F7B91F80CA042EA0062360446EAFE
:10137000096613434FEA0B4C91F80690029AC8781D
:101380004CEA086B43EA09294BEA020BA368039A6B
:1013900091F80A8091F80EC03F0447EA0A6791F875
:1013A00002A0216917433043626889EA0306E368B3
:1013B00005964BEA082B47EA0C2740EA0A208BEAFD
:1013C000030379404240BEF1010F06930791049256
:1013D00004F1140998BF04AE7FD904F124074FF03B
:1013E000010804AEAB463046FFF780FF3046FFF7FA
:1013F00019FEDDF810A0059D069A07980AF0803EB8
:101400004FEADE1E0EEB4E0E0AF07F314FEA3A43F2
:101410000EEBCE0E8EEA410E83EA3A2383EA0E03E8
:1014200005F080318EEA0A0E83EA3E6EC90957F84C
:10143000103C01EB410183EA0E0301EBC10105F011
:101440007F3E4FEA354A049381EA4E018AEA352A03
:1014500002F0803E57F80C3C8AEA010A4FEADE1E91
:1014600069408AEA31610EEB4E0E4B400EEBCE0E18
:1014700002F07F314FEA324905938EEA410E89EA44
:10148000322900F0803357F8081C89EA0E09DB097D
:101490008EEA020E89EA3E6E03EB430381EA0E01F7
:1014A00003EBC30300F07F3C4FEA304E83EA4C036A
:1014B00006918EEA302E57F8041C8EEA030E434044
:1014C0008EEA336359402368079108F101084345C8
:1014D000B94607F1100786D85D463046FFF706FF8C
:1014E0003046FFF79FFDD9F800300498D9F8047012
:1014F000D9F80860D9F80C400599069A5840079B1E
:10150000E870794063407240040E4FEA104B4FEA96
:10151000102A4FEA11694FEA11484FEA112C4FEA9D
:10152000126E170C160A2C70180C1C0EE971190A91
:10153000EA72EB7385F801B085F802A085F8049093
:1015400085F8058085F806C085F808E06F72AE72F0
:101550002C736873A97309B0BDE8F08F38B50B4DD3
:10156000044629460068FFF707FE294620606068A8
:10157000FFF702FE29466060A068FFF7FDFD2946DF
:10158000A060E068FFF7F8FDE06038BD60BF0200D2
:101590002DE9F04F036887B01D46009323F0040344
:1015A0000A2B914603D00C2D01D009F0F1F94B7BA9
:1015B00091F80CA04C794A7A0E790D7A91F807804F
:1015C00091F80BC091F80FE08F7991F801B01B04EE
:1015D00043EA0A630193009B240400EB031A1204FC
:1015E000019BC87844EA066442EA05628E7A8D7BE4
:1015F00044EA080442EA0C0243EA0E0344EA0724E0
:1016000042EA062243EA0523039404920593DAF89A
:10161000105091F800E0DAF80870DAF80C6091F8F0
:1016200002C0DAF804104FEA0B4B6B404BEA0E6E27
:101630000593AAF10C034EEA00000193009B40EAD7
:101640000C207C4072404140B3F1010B03940492A2
:10165000029108BF0DF1080834D0AAF11C0A0DF15F
:1016600008084046FFF71CFD4046FFF777FFDAF811
:1016700010700298DAF814600399DAF81850049A96
:10168000DAF81C40059B78404E4055405C40FFF71F
:1016900043FD02903046FFF73FFD03902846FFF7D9
:1016A0003BFD04902046FFF737FDBBF1010BAAF18B
:1016B000100A0590D5D1009B019A1B01C3F11003BC
:1016C0001A4401924046FFF7EBFC4046FFF746FF05
:1016D000019B0298D3F800E05E689D68DC6803A96E
:1016E0000EC98EEA0000714063406A40040E4FEA62
:1016F000104B4FEA102A4FEA11684FEA114C4FEA9B
:10170000112E170E160C150A89F8004089F80300EF
:101710001C0E180C89F80710190A89F80B2089F893
:101720000F3089F801B089F802A089F8048089F89F
:1017300005C089F806E089F8087089F8096089F819
:101740000A5089F80C4089F80D0089F80E1007B08E
:10175000BDE8F08F70B514460E46F4220021054610
:1017600009F0BDF9182C10D0202C0CD0102C01D071
:1017700009F00EF90A23314622462B602846BDE8BF
:101780007040FFF75FBD0E23F5E70C23F3E700BFC2
:10179000F0B503681F6889B00646DFB10846074404
:1017A0006946013A6C4610F8015B12F8013FB842F5
:1017B00083EA050304F8013BF5D104AA06F12800E9
:1017C000012303F01BFC3368726D1B6813447365BF
:1017D00009B0F0BD6946F0E710B500F11802044603
:1017E000FFF7D6FF0123A36510BD00BF10B500F1C0
:1017F00008020446FFF7CCFF0123A36510BD00BF1C
:1018000010B5044684B06A462830012303F0F6FB85
:101810002368626D1B681344636504B010BD00BF8C
:10182000F0B50B68102B89B00D462ED1174600215C
:101830002822044609F053F92A6823786E462AB113
:101840006846002109F04BF99DF800306B6832467C
:10185000384631469847304604A903F047FB04A8B0
:10186000014603F073FB04A804F1080103F01AFB1E
:1018700004A8014603F06AFB04A804F1180103F070
:1018800011FB84E8A00009B0F0BD09F081F800BFA9
:1018900030B5044685B0002594E806006B46283034
:1018A000009501950295039503F0A0FB04F140001B
:1018B0002946102209F013F994F840302565656532
:1018C000A56505B030BD00BF10B50446FFF7A8FF01
:1018D0002046BDE81040FFF7DBBF00BFF0B504466F
:1018E000006887B00568002B32D0206D131803F014
:1018F0000F0342B3A06D48BB002B39D004F1400761
:1019000004F15006DFF878E0009203940B46384665
:101910003146CDF804E0CDF808E02A46FFF72AFA70
:10192000236DDFF864E00494EB1A00240293384638
:1019300031462A4600940194CDF80CE08023FFF74D
:1019400011FB07B0F0BD08B9636DA3B109F020F831
:101950000B4B18468DE80C0002900B4603942A4668
:1019600004F1400004F15001FFF704FA07B0F0BDA4
:101970000448034BEEE7A36D002BBFD0E6E700BFA2
:1019800001180200ED170200D917020008B5836D97
:101990004BB10A460146104651F8303B1A68BDE883
:1019A000084009F091B808F0F3FF00BF2DE9F041BD
:1019B0000F4601680D6884B004462DB3002190469F
:1019C00068462A461E4609F08AF804AB2B44204696
:1019D00003F8117CFFF75CFF69462A4620464EB9A2
:1019E0000123FFF77BFF20460A99FFF7CFFF04B0E2
:1019F000BDE8F0810023FFF771FF204641463246E3
:101A00000123FFF76BFFEEE708F0C2FF2DE9F04777
:101A10008946B2B00546014692461BA84A460DF1DA
:101A200008081E46409F3F9CFFF74EFF1BA83C9AAC
:101A30003D9BCDF800800021FFF7B8FF06A91BA849
:101A40003A9A3B9B00910121FFF7B0FF4A4643467B
:101A500029460EA803F00AFB0EA851463E9A3346CB
:101A600003F01AFB0AA9334600911BA83E9A0221F3
:101A7000FFF79CFF2B68BB4218D3A7B1013F274457
:101A8000611E0DF107050DF127040DF1170014F883
:101A9000016F15F8013F10F8012F7340534001F812
:101AA000013FB942F3D132B0BDE8F08708F070FFD2
:101AB00073DF704774DF704777DF704708B5FFF753
:101AC000F9FF30F0080301D0FEF7C0FBBDE8084085
:101AD00000F0AABA10B5044601F032FF20460021FA
:101AE000FFF7E6FF112804D018B1BDE81040FEF75B
:101AF000ADBB10BD10B51B4B94B01B788DF80230F8
:101B000000214FF4EA433C2205A8ADF8003001243F
:101B100008F0E5FF022305A88DF81430ADF8244045
:101B2000CDF828D000F050F90F4B1B78002B18BFD0
:101B300000214FF0000308BF3C214FF47A7201A846
:101B40000493039301930293ADF81010ADF80E20A7
:101B5000FFF7C0FF054B1B680BB12046984714B038
:101B600010BD00BF712800207828002074280020B4
:101B7000044B1B780BB1FFF7BDBF034B188800F077
:101B800001BA00BF782800208420002030B585B03D
:101B9000044601F0DFFC0546FFF78CFF30F0080338
:101BA00026D12378BBB1012B25D01D4B1B680BB16F
:101BB00000209847002303214FF480426846009399
:101BC0000293019303938DF80010ADF80A20FFF7FC
:101BD00081FF05B030BD637805EB831595F90100F1
:101BE000FFF76AFFA8B96078002100F0F1F8DCE7A0
:101BF000FEF72CFBD5E795F84C3105EB831595F9ED
:101C00000100FFF759FF38B96078012100F0E0F8D2
:101C1000CBE7FEF71BFBE6E7FEF718FBF4E700BF98
:101C20007428002008B5054B1B7803B108BDFFF7E9
:101C300045FFBDE80840FFF75DBF00BF79280020E1
:101C4000014B188800F09EB984200020014B1870C9
:101C5000704700BF78280020014B1878704700BFFC
:101C60007828002008B50388112B18D01B2B0BD027
:101C7000102B00D008BD0E4A0E4B108801221A709E
:101C8000BDE8084000F07EB9037A002BF2D1094B81
:101C90001B78002BEED1BDE80840FFF769BF054B6C
:101CA00000221A70FFF70AFFBDE80840FFF760BF87
:101CB000842000207928002010B5044601F04AFC59
:101CC00090F8413113B190F84D319BB990F8400133
:101CD000C0EB401300EB8300800080B2A04244F6CA
:101CE000206338BF2046984295BF074B064A1880AC
:101CF000138010BD90F8400100EB800000EB8000E5
:101D0000400180B2EAE700BF84200020014B188820
:101D1000704700BF84200020F8B5DFF83CE0094F91
:101D2000094E0A4D0A4C8EF80000002030703960D0
:101D30002B70228001F00CFE0648BDE8F84000F050
:101D400079B900BF74280020792800207828002065
:101D5000842000208D1B02007128002000F0F4B8C0
:101D600070B5184A94B005464FF6AA631068019002
:101D7000ADF808300C4601B303C903AB83E8030098
:101D800000213C2205A808F0AAFE003418BF012457
:101D900029460626012501AA02AB05A88DF8404078
:101DA0008DF81760ADF824500A920F9305F0FEFEEF
:101DB00008B1FEF74BFA14B070BDADF80C100491E9
:101DC000DEE700BF6CC002000021FFF7C9BF00BF03
:101DD00070B582B000230E4604460093019301F0D3
:101DE000B9FB0546AEB900EB841393F82630202BDF
:101DF00015D0A0012B1802A993F8273021F8083D2F
:101E0000284400F1120300200193FFF7A9FF02B05C
:101E100070BD204601F062FB95F84C41E9E701F006
:101E20004FFBE6E770B52B4B2B4D03EB800282B0E6
:101E3000297856788DF80560044613F820008DF84F
:101E40000400C9B193F82830012B15D9013B9C42FD
:101E500017D253884FF4FA704FF400420021E3FB8D
:101E600002014FF47A72002308F0C4FA621C0146A2
:101E70001A48FEF7C9FE48BB1CB9194A136801335A
:101E8000136001F067FB90F84D314BB190F84C3185
:101E90009DF805209A420ED09DF80430012B0AD0FF
:101EA000104B1B680BB12A780AB902B070BD01A8AB
:101EB000984702B070BD0A4A0B4B1268A3FB02138D
:101EC0009B0803EB83039A42EAD0EEE7FEF7BEF9E4
:101ED000D2E700BFC4280020A02800207C280020D2
:101EE000F02800209C280020CDCCCCCC08B501F0F7
:101EF00031FB90F84031E3B9104B1B7803B908BDB2
:101F00000F4B1B884FF400424FF4FA700021E3FBA3
:101F100002014FF47A72002308F06CFA00220146A5
:101F20000848FEF771FE0028E9D0BDE80840FEF73A
:101F30008DB90020FFF776FFDEE700BFA028002064
:101F40007A280020A428002008B50A480A4A00215F
:101F5000FEF748FE50B90948094A0021FEF742FE43
:101F600000B908BDBDE80840FEF770B9FEF76EF98C
:101F7000F1E700BF74C00200ED1E020070C0020055
:101F8000251E0200F0B587B0044601F0E3FA224AAC
:101F900090F84031012111700BB907B0F0BD1F4D11
:101FA0004FF400434FF4FA700021E4FB03014FF4B7
:101FB0007A7200232C8008F01DFA0022014618488E
:101FC000FEF722FE28BB01F0C5FA2B8890F840717D
:101FD00090F8415190F84D4190F84C11114AADF8EC
:101FE000003000F5A17600F2471368468DF80270C4
:101FF00001968DF8085003938DF810408DF811105C
:10200000059200F03DF80028C7D0FEF71FF907B091
:10201000F0BDFEF71BF9D6E7A02800207A280020A3
:10202000A4280020C4280020014B00221A70704709
:10203000A02800200F490B46002230B443F8042B9F
:1020400004334A6043F8042B43F8042B43F8042B71
:1020500043F8042B43F8042B43F8042B43F8042BD8
:1020600043F8042B044D054C1A802A70206030BCC4
:10207000704700BFC4280020A02800209C28002012
:1020800000287FD02DE9F04F077C83B037B98178E5
:1020900000297CD1072003B0BDE8F08F077A817852
:1020A000003718BF01270029F4D0B0F800C0CB1BBF
:1020B0009CFBF3FC1FFA8CFE0025AEF596732C46B4
:1020C000A8464FF49679019343685A5D002F34D0A7
:1020D000437C93421ED0436921B203EB810A661C04
:1020E0008AF8012003F82180AAF802E0017AC36887
:1020F000F6B2002948D093F800B093452AD019448D
:10210000013303E013F801BB5A4523D08B42F9D1C8
:10211000817834460135A942D6D8436983F82840EE
:10212000436993F828000028B5D0013803EB8003F9
:102130000020588003B0BDE8F08F416926B201EB62
:10214000860301345A7001F82670A3F802E0E4B265
:102150008178DFE74169AAF8029036B201EB860A7E
:10216000BCF5967F8AF801204FF00102019B01F82F
:102170002620D8BF4FF4FA730234AAF80230E4B232
:102180008178C7E70E20704734468178C2E7B0F8FF
:1021900000C09CFBF1FC1FFA8CFE8DE7037883B92D
:1021A0004368084AB3F9003003EB8303C3EB03131E
:1021B000DB0048BF03F2FF339B1203EB43035B00DA
:1021C00013807047F628002000B5002085B0134921
:1021D00003F096FDF0B9124B186859681A7A01ABF2
:1021E00003C3002001A91A7003F0DAFD78B90D4885
:1021F000012103F015FE38B903F074FE08B1FEF7B3
:1022000025F805B05DF804FBFEF720F8F4E7FEF7CB
:102210001DF8ECE7FEF71AF8DDE700BF9D2102008C
:1022200078C00200F4280020A0B108B50B4B1B8831
:10223000038003F06FFE00B108BD0948012103F0DF
:10224000EFFD40B903F04EFE0028F5D0BDE8084090
:10225000FDF7FCBF7047FDF7F9FFF3E7F628002014
:10226000F428002076DF704770B58CB04268438850
:1022700000920024054609A90088069404AAADF836
:102280001830019408940294039409940A940B94CE
:1022900004940594CDF81CD002F0EEFBAB7B06460F
:1022A0007BB960B909A802A902F026FB38B9A86871
:1022B000AA89039908F008FC09A802F041FB0CB0B8
:1022C00070BD022B24D0002BECD0012B26D1A968A5
:1022D000AA89686808F0F8FBAA899308920718BFD2
:1022E0000133ADF804302B88ADF81A300A2E4FF0C8
:1022F0000103ADF8203009A806A912D002F048FB6E
:102300000028DCD1084A1368013313600CB070BD9B
:102310000A2803D009A802F043FBF1E720460CB0DD
:1023200070BD02F031FBEBE7582A002008B502F03F
:1023300081FB024A13680133136008BD582A00204C
:1023400008B50378052B19D8DFE803F01912121D20
:102350001D03124B1B785BB1114B18884FF6FF73AE
:10236000984205D01321FFF77DFF08B1FDF76EFFFE
:102370000C4B1A6812B11A68013A1A6008BD094B71
:1023800000221A6008BD00200146074AFDF7C0FF81
:102390000028F3D0BDE80840FDF758BF542A0020BC
:1023A00086200020582A00202D23020030B585B059
:1023B000094A02901023042541F2383468468DF80A
:1023C0000E10ADF80050ADF802400192ADF80C309F
:1023D000FFF74AFF05B030BD442A002030B585B074
:1023E000094A02900423052541F2373468468DF8E6
:1023F0000E10ADF80050ADF802400192ADF80C306F
:10240000FFF732FF05B030BDF8280020042801D9BD
:102410000720704730B50C4B0C4C85B034F8105089
:10242000029153F820408DF80E2041F237314023BD
:102430006846ADF800500194ADF80210ADF80C30CC
:10244000FFF712FF05B030BD90C0020084C002004B
:1024500030B585B0094A02900723012541F237348F
:1024600068468DF80E10ADF80050ADF802400192AC
:10247000ADF80C30FFF7F8FE05B030BD7C29002028
:1024800008B541F2373002F0AFFA10B9014B012222
:102490001A7008BD542A0020014B1868704700BF0D
:1024A000582A00200388102B0AD0112B07D10D4B7E
:1024B0000D4A1B784FF6FF7111802BB9704770479A
:1024C000094B82881A807047BFF34F8F0749084B2A
:1024D000CA6802F4E0621343CB60BFF34F8F00BFC2
:1024E000FDE700BF542A00208620002000ED00E018
:1024F0000400FA0570B50949094D0A4B0A4801263E
:102500004FF6FF7400222E600C801A7002F0F2F871
:1025100000B170BDBDE8704002F000B98620002017
:10252000582A0020542A002041230200A8DF7047C7
:1025300040B139B1B0F864004FF6FF73984203D14F
:10254000082070470E207047FFF7F0BF00B585B038
:102550000023009301930293039320B381B940F2C7
:102560000313ADF80430B0F864004FF6FF73022295
:1025700098428DF8002010D1082005B05DF804FBCA
:102580004FF48173ADF80430B0F864004FF6FF7378
:10259000012298428DF80020EED06946FFF7C6FF71
:1025A00005B05DF804FB0E2005B05DF804FB00BF2C
:1025B000F0B5184C83B02478BDF820607CB147F2A8
:1025C0000754A14220D0144C00962478019400F0C6
:1025D0009DF970B103B0BDE8F040FDF737BE9E46EF
:1025E00047F20753994206D02146FFF7AFFF002874
:1025F000F0D103B0F0BD1746714632463B4600F0BD
:102600005BFA0028F5D0E5E70021FFF79FFF0028DF
:10261000EFD0DFE75C2A00205D2A002030B5144BA4
:102620001B7883B073B147F20755A9421AD0114CF9
:102630000093237800F08CF868B103B0BDE8304017
:10264000FDF704BE47F20752914206D01A4600F049
:1026500041F80028F1D103B030BD00F063F8002844
:10266000F9D0EAE70121FFF771FF0028F3D0E4E792
:102670005C2A00205D2A002040B10549054A016717
:10268000002342670B701370184670470E20704786
:102690005D2A00205C2A0020A5DF704700B585B0C8
:1026A00000230293039200930193ADF80A1068B1DE
:1026B0009DF806300122134369468DF806308DF8E7
:1026C0000020FFF735FF05B05DF804FB0E2005B0D4
:1026D0005DF804FB00B585B08DF80720A8B147F27E
:1026E0000C53994215D047F2065399424FF001011D
:1026F00004D0FFF72BFF05B05DF804FB0DF10702D6
:10270000FFF7CCFF05B05DF804FB0E2005B05DF8C7
:1027100004FB04AA012102F8011DFFF7BFFF05B069
:102720005DF804FB90B110B584B00446684600F033
:1027300057FB08B104B010BD684600F02BFB2046E3
:102740006A461021FFF7AAFF04B010BD0E207047A3
:10275000B8B12DE9F0418EB00C4605461F4616462D
:1027600000F0F8FEA4F5EA41013980460B2900F299
:102770009C80DFE801F07676121D283F76763145A1
:102780009A080E2070470EAA012102F8241D28463F
:10279000FFF784FF0EB0BDE8F081FFF7B7FA0EAA8D
:1027A00040BA22F8240D02212846FFF777FFF1E70F
:1027B00000EB87135A1C7CD028460121FFF76EFFDF
:1027C0000EB0BDE8F081BB01C11891F82820002AA5
:1027D0006DD00A462932EFE700EB8713284693F8BD
:1027E0002A201AB193F82620302A64D00121FFF75D
:1027F000ADFECFE72846012114AAFFF74FFFC9E736
:10280000BC0100230219059306930793089392F8DD
:102810002660302E54D090F8413133B190F84D31CC
:102820001BB190F84C31BB4269D008EB04031C4645
:10283000123493F82730ADF81E3008949DF81A3002
:10284000002243F001030124284605A98DF81A301F
:10285000ADF81820ADF81C208DF81440FFF768FE85
:1028600098E70023314605AC2226B5F864000593AD
:1028700001AA06930793089309930A930B930C9369
:10288000ADF83430ADF80630ADF804600294FFF7CF
:1028900003FF00287FF47EAF029ABDF8041042B116
:1028A0002846C9B2FFF7FAFE74E7072072E74A1C10
:1028B00082E70E206EE79A1C1021FFF7EFFE69E712
:1028C000384600F065FB0E2302BA38460092ADF898
:1028D0001E308DF8046000F06DFB10348DF805009B
:1028E000A0440098CDF8060058F8042F01ABD8F8A2
:1028F0000410CDF80E10CDF80A2008939EE790F84A
:10290000470100F0EBFD90E7A4DF70472DE9F041AF
:1029100084B0BDF828609DF82C7098B393B3A1F5EE
:10292000EA410022023905461C46009201920292B9
:1029300003920A2910D8DFE801F030393F45060F2D
:102940000F0F4B712900012E00F08380112E00F033
:102950008680002323700126ADF80A6003949DF859
:102960000630022443F001030022284669468DF810
:1029700006308DF80040ADF80820FFF7D9FD04B00F
:10298000BDE8F0810E2004B0BDE8F0812078002879
:102990004CD00120FFF75AF9DEE72378042BDBD96E
:1029A00040F20D13ADF804300026D5E7208840BA78
:1029B00080B2FFF781F9CFE7384694F9001000F0B4
:1029C00079FCC9E7384694F9001000F083FCC3E7AE
:1029D000142E94BF4FF000084FF0010816F0FF01CD
:1029E00027D0012923784CD0102B5ED042D9202B40
:1029F00055D0302B4ED122291BD0A1F11203B3FAAE
:102A000083F35B09ABB940F20D13ADF80A60039490
:102A1000ADF80430B8F1000FA1D018E023780B2BEB
:102A20009AD1FFF72DFD002896D0A8E7FFF70EF901
:102A300092E72246384600F05DFCFFF767F9FFF7A2
:102A40003BF9ADF80A600394B8F1000F87D000207D
:102A500095E7237813F0FD0F7FF47BAF7BE72378B6
:102A6000002B7FF476AF601C00F07CF900283FF467
:102A700072AF84E773B9A1F11103B3FA83F35B0971
:102A8000C0E7002BD5D0102B0FD0F3D9202B06D0C8
:102A9000302BB2D040F20D13ADF80430D1E7A1F1E4
:102AA0000103B3FA83F35B09ACE70B1F0F2B8CBF59
:102AB00000230123A6E700BF30B5054687B020B349
:102AC00019B31446102C4FF00002ADF800400191EC
:102AD0000292039204920592ADF8022018D00B46A0
:102AE0009DF80E20ADF8124042F001022846002465
:102AF000022502A905938DF80E208DF80850ADF837
:102B00001040FFF715FD07B030BD0E2007B030BDF7
:102B10001946B0F864006A46FFF7F6FE034628B18E
:102B200040F20313ADF80C30019BD9E70198ADF8E2
:102B30000C3000F043F9019BD2E700BF2EDF704755
:102B40002FDF704730DF7047742303FB00F3104A18
:102B500070B503F11004101900F10805002111519E
:102B6000416045F8041BD4182960A16E20331A4433
:102B70000D0E0B0CFF26E3772146E676A577FDF7D1
:102B80003BFA04F120030FCB303484E80F0070BD12
:102B9000982A00202DE9F041742505FB00F51B491A
:102BA00005F140040746081900F1080200230B5103
:102BB000436042F8043B4C19136094F86C60A36EB8
:102BC00084F84B60F340B34005F150028E184FEA91
:102BD00013684FEA132E4FEA134C303584F84F3008
:102BE00084F84C8084F84DC084F84EE02944324685
:102BF000FDF702FA96E80300603484E80300044B12
:102C000038461B680121BDE8F0411847982A00208A
:102C1000DC2C002030B583B004460DF106000D46D3
:102C2000FFF78CFF0DF10700FFF78AFF9DF80610F4
:102C30009DF807308B42F5D32046FFF783FF9DF8C0
:102C400006301F2B05D92846214605F099FF03B011
:102C500030BD0DF10700FFF773FF9DF806009DF8EA
:102C60000730C0F120018B42F3DB2044C9B2FFF7EB
:102C700069FF2846214605F083FF03B030BD00BF41
:102C80002DE9F843214B187800F09EFD0746F0B17E
:102C90001F4E002534464FF0020894F87030C3B937
:102CA0000135052D04F17404F7D11A4D1A4A2B6829
:102CB0001F4497422F600AD9184F002496F87030AD
:102CC0007436CBB90134052CF8D100232B60BDE854
:102CD000F883A36E3B449AB2A3665FFA85F982B18A
:102CE00094F86C20013A08FA02F2013A1342D7D163
:102CF0004846FFF74FFFD3E73B68E0B2042198470F
:102D0000E0E74846FFF720FFA36EE9E7642A0020CA
:102D1000982A0020602A00207F510100DC2C00202E
:102D2000F8B50E4C0E4E0546742000FB05440127F5
:102D300084F86C10A266186859689A68DB6836686F
:102D400084F870700FC428460221B0472846FFF768
:102D5000FBFE2846BDE8F840FFF71CBF982A00207C
:102D6000DC2C002030B50A4C85B0002321466A4691
:102D70000093019302930393FDF756F99DE80F002A
:102D800084E80F0020460121FFF710FB05B030BD9D
:102D9000682A002030B40346074D59689A680068D5
:102DA000DB6805F110040FC405F110002246294626
:102DB00030BCFDF721B900BF682A002010B50649D4
:102DC000102207F071FE00B110BD044B01461B68D4
:102DD000BDE81040184700BF882A0020DC2C0020E6
:102DE0001021FFF7AFBE00BF70B50F4D742303FB7A
:102DF000005301264FF47F45044683F86C2083F886
:102E000070609D661A4608460849FDF70DF9204690
:102E1000FFF79AFE2046FFF7BDFE054B20461B68D4
:102E20000221BDE870401847982A0020682A002037
:102E3000DC2C0020F0B5494F742303FB00730D46D2
:102E40004FF0010E4FF47F4183F870E083F86C205F
:102E50009966E1B06968AA68EB688DF80CE00646EF
:102E6000286818AC0FC428696969AA69EB6908ADBC
:102E70000FC408A810A9FFF7CDFE0FCD384C0FC422
:102E800095E80F0010AD84E80F000FCD10340FC48B
:102E900095E80F0084E80F0008A918AA20A818AC2C
:102EA00005F0B0FD0FCC0DF5807EAEE80F0094E884
:102EB0000F0010AC8EE80F000FCC48AC0FC495E8A3
:102EC0000F00202584E80F0030A840A9402220AB45
:102ED0000024009505F0B2FE20A92A4628A82894CF
:102EE00029942A942B942C942D942E942F9407F0AB
:102EF000DBFD38BB1B4A1378012B26D950AC0122CD
:102F000030A903AB20460092202205F097FE94E8FA
:102F10000F0004AC84E80F00742404FB067787E8F4
:102F20000F00114C3046FFF70FFE3046FFF732FE20
:102F3000236830460321984723683046022198478A
:102F400061B0F0BD074B1C70D8E701330DEB0500F5
:102F500010A91370FFF75EFED0E700BF982A00208B
:102F6000E42C0020E02C0020DC2C002030B4074CA6
:102F70000D460FCC28606960AA60EB600FCC286119
:102F80006961AA61EB6130BC704700BF042D00206D
:102F9000024A742303FB0020806E7047982A0020A9
:102FA000034B742202FB0030002107F098BD00BFE4
:102FB000982A0020034A742303FB002090F86C0039
:102FC000704700BF982A0020054A742303FB0020A5
:102FD00000F160030A4603CB10605160704700BFE8
:102FE000982A0020F8B50C4A0C4F742303FB0020EC
:102FF0000E460FC807F1100507F1200485E80F0001
:10300000284639462246FCF7F7FF0FCC3060716046
:10301000B260F360F8BD00BF982A0020682A002043
:1030200030B4064C742303FB00440D460FCC2860DB
:103030006960AA60EB6030BC704700BF982A00202E
:103040002DE9F04F0E46034656F8020F374CD9B023
:1030500015460F46B26871684FF0740E0EFB0344BC
:1030600011AB07C394E80F0094F86C60A46EF440B1
:10307000B4400DF15C0A8AE80F004FF000084FEAF7
:10308000146E0CAE220C230A0AA802218DF830E03F
:103090000DF12C098DF833408DF831208DF8323048
:1030A000ADF834808DF82780ADF82880FFF74AFD11
:1030B000BDF82830B38051461BA8102214AC0DF186
:1030C000270BA9F80080FEF745FB06200223029695
:1030D0001BA911AADFF858C0DFF858E00390049448
:1030E0000EA80693CDF800B0CDF80480CDF814906A
:1030F00010260C230E96CDF83CC0CDF840E0FEF72C
:1031000085FC234607CB3F78BDF82860B9F800401E
:103110002F7001276F70C5F80200C5F80610C5F8BA
:103120000A20EE812C8259B0BDE8F08F982A002049
:10313000211302009115020040B370B51E4D84B0FA
:10314000044600212846FFF731F90A2820D080BB29
:103150001A4B1B481C600021402207F0C0FC194B91
:1031600019484FF47F424FF400419A66C3F8DC20BF
:10317000C3F85021C3F8C421C3F8382200F04AFB39
:1031800008B1FDF763F8002004B070BD0720704758
:103190000E4B186859689A68DB686E460FC616E9C8
:1031A0000F0085E80F0028460121FFF7FFF80028EF
:1031B000CED0FDF74BF8CBE7682A0020DC2C0020AE
:1031C000E42C0020982A0020642A0020A4C00200D9
:1031D000F0B5214B214E1D7A87B002460F46186884
:1031E00059686C4603C453F80C0F2570596893F85E
:1031F00008E09201B51803AC03C495F8283084F8B0
:1032000000E028356BB16978324492F82630102BF3
:1032100004D017D9202B0FD0302B00D1D17407B098
:10322000F0BD0DF10B0111F9010FB8420EDA0133B7
:10323000092BF8D10021E7E7072007B0BDE8F040EF
:10324000FDF704B8002BE9D007B0F0BD06A90B4488
:1032500013F8181CD8E700BFB4C00200242D0020CA
:10326000F8B5134E8501721902F1280792F82A1059
:1032700059B192F82630302B04460BD020467119F4
:103280000122BDE8F840FFF7C1B80222BDE8F840CE
:10329000FFF7BCB8FFF77CFE78602046FFF78AFE98
:1032A00005F13001F87031442046FFF7B9FEE5E73B
:1032B000242D0020064B042828BF042003EB801394
:1032C00093F82820597002B17047FFF781BF00BF03
:1032D000242D0020064B042828BF042003EB801374
:1032E000012283F8291083F82820FFF771BF00BF5F
:1032F000242D0020042828BF04202DE9F8430C4683
:1033000080461546002A4AD074B3012C2A7829D069
:10331000302A2FD0464E4FEA881906EB090393F85E
:103320002A30A3BB202A17D041480023414600F091
:10333000F5F906EB09072A7887F8262009F110032A
:1033400033442037102A03F102009A702BD0202A30
:1033500038D042B3BDE8F88396F84D31002BE3D066
:10336000BDE8F883002AD5D141463148BDE8F8438D
:1033700000F09EB9222C2BD0122C29D02C4E4FEAD3
:10338000881906EB090393F82A30002BCCD0284883
:10339000414600F08DF92A78202AC5D1DCE70E20BD
:1033A000FCF754FFB0E72246691C02304E4407F098
:1033B0008BFB013440460021FFF70AFF86F82740C7
:1033C000BDE8F88300F086FA0E23FB71BDE8F883B0
:1033D000174800EB881393F82A3013B1414600F0E8
:1033E00067F91348414600F063F970B92B78302B28
:1033F00002D00820FCF72AFF222C11D0122C08D072
:103400000720BDE8F843FCF721BF4046FFF7C8FDA1
:10341000ECE74046691C6A7CBDE8F843FFF7E4BC72
:103420004046691C95F82120BDE8F843FFF702BD2E
:10343000242D0020042828BF042081B170B4084B3B
:103440000E684D688C68CA6803EB8010C0F8026093
:10345000C0F80650C0F80A40C0F80E2070BC704793
:10346000242D00202DE9F041134EDFF8508081011A
:1034700077180A2230243946054687F82720143168
:1034800087F82640FFF7A0FD97F90110BC74284685
:10349000FFF79EFE98F800303046294622461BB9B9
:1034A000BDE8F04100F03AB9012300F037F90023FC
:1034B00088F80030BDE8F081242D0020842E002003
:1034C000054B93F84D2102B9704793F84C0103EB7B
:1034D0008010123000F0FEB9242D0020F0B51C4DF4
:1034E0008BB00446284600F0DBF890B195F8411106
:1034F00079B195F84731A3420DD001F5A371294464
:1035000005F2471303E013F8012FA24203D08B42C8
:10351000F9D10BB0F0BD01A800F0DCF901A92046FB
:1035200005AA05ACFFF78CFD0FCC95F84C712688E9
:1035300005EB87151227C5F8120085F827706E84F1
:10354000C5F81610C5F81A20C5F81E300BB0F0BD2E
:10355000242D002000487047242D00202DE9F04341
:1035600083B000240646384F384800940D46ADF825
:1035700004408DF8064000F011F9214668463C7081
:10358000FEF766FF0A2825D000284ED12F4E6D4643
:1035900000244FF0010915F8012B3AB10134052C34
:1035A00006F14006F7D103B0BDE8F0835FFA84F876
:1035B00040463146FEF72AFF0A28EFD090BB96F826
:1035C00026202248302A41464FF0010330D000F037
:1035D000A5F8E3E7002DE6D005F1FF385FFA88F89B
:1035E00008F10108DFF8649006EB881896F800E00F
:1035F000344609EB8E1706F1400C20686168A2681A
:10360000E3683D460FC5103464452F46F5D196F862
:1036100026200E487146012300F080F844452646D6
:10362000E4D1C0E7FCF712FEC9E7FCF70FFEADE7F7
:10363000404696F82B10F26A87F8009006F13003A6
:10364000FFF76EFBAAE700BF842E0020242D002088
:10365000F8B50F7804460023254601342E789642AB
:1036600003D00133052BF7D1F8BD7A1ED2B29A42AE
:1036700004460E4610D91844A31810F8011F00F88C
:10368000011C9842F9D1C2F10502AB2107F027FADB
:103690003378013B3370F8BDAB232B70F8E700BFE4
:1036A00090F8413113B190F84D01704718467047BA
:1036B00070B58E018319044693F82A000D4610B3A5
:1036C00094F84D3194F84C21BBB904F5A17004F580
:1036D000A0712A46FFF7BCFFA31993F82630302BC0
:1036E00013D00025A319002283F82A20A019002155
:1036F000402207F0F4F9284670BD914204BF002330
:1037000084F84D31E1E70546F0E72A4604F2471018
:1037100004F24111FFF79CFF0125E3E7202A70B472
:1037200026D08C01051995F82A6006B183B10444AE
:10373000012384F82A3090F84031C418302A03F16C
:10374000010384F8421180F8403107D070BC704703
:10375000302AFBD195F82630302BF7D090F8413144
:10376000C218013382F8471170BC80F841317047AC
:1037700000EB8112283280F84C119578012480F8F2
:103780004D410DB1002BE1D0947090F84031C2183A
:10379000013382F8421180F84031D7E738B500256F
:1037A000044680F84D51AB21052200F5A17007F0C9
:1037B00096F904F24710AB21052207F090F984F83E
:1037C000415184F8405138BDF8B504460F4EFDF71D
:1037D00087FA56F824300546A3B10D4F284657F80E
:1037E0002410FDF783FA56F82430984208D3B5FB2D
:1037F000F3F5B0FBF3F003FB05F347F82430F8BD15
:103800000020F8BD0820FCF721FDE6E7982E0020F7
:10381000882E002068B10D4A1378042B07D010B40D
:103820000B4C24783CB980205DF8044B704708208D
:1038300070470E2070470370064C581C107044F8F7
:10384000231000205DF8044B704700BF852E002038
:10385000A82E0020982E002070B40D480D4C0E4E5E
:103860000E4D21460246002341F8043B42F8043B3A
:10387000043104324360636042F8043B41F8043B86
:1038800001200B6013603370287070BC704700BF5C
:10389000982E0020882E0020852E0020A82E0020A3
:1038A00010B5094B094C187882B0FFF78DFF084915
:1038B0000B6802AA034418BA42F8040D1068C4F851
:1038C0000A000B6002B010BDC02E0020AC2E0020FC
:1038D000C42E002030B585B00446FFF7E1FF154B3C
:1038E000154D1A68154904AB12BA43F80C2D186827
:1038F000C5F806000878FFF767FF88B10DF10E00E4
:1039000005F076F8BDF80E306B710DF10E001B0A54
:103910002B71FEF789FCBDF80E30EB701B0AAB7003
:10392000054B07CB20606160A2601B88A38105B0B6
:1039300030BD00BFBC2E0020AC2E0020C12E0020C8
:10394000024A136801331360704700BFBC2E002089
:1039500010B51949194C82B0002320200B60236058
:103960006360A360A3812070FFF79AFF0DF106004A
:10397000FEF75AFCBDF80630E3700DF106001B0A95
:10398000A37005F035F8BDF8063063710C481B0ACA
:1039900040F6CD412371FFF73DFF48B909484FF488
:1039A000A021FFF737FF08B1FCF750FC02B010BDB3
:1039B000FCF74CFCF2E700BFBC2E0020AC2E002030
:1039C000C02E0020C12E00202DE9F0418468022382
:1039D000013400F580550B8000F108002CD0DFF891
:1039E00060C04FF0000EDCF800704FF6FF760FE07D
:1039F0008468A74238BF274644880334234400EB39
:103A000084009BB285420B800DD9046801340AD032
:103A10008488B0F80080B44202D0B8F1000FE7D13A
:103A20004FF0010EE8E7CCF800701AB182F800E020
:103A3000BDE8F081BDE8F0814FF0000EF5E700BF72
:103A40006C2F00200330F0B440F2FD3386B29E426A
:103A500002D90920F0BC70470F4B002213F8085C14
:103A600090B23DB91F885C883C443444A4B2B4F59C
:103A7000806F07D30132092A03F11003EED107202A
:103A8000F0BC7047054B088003EB021228465389AF
:103A90001E445681DEE700BFB8300020B030002061
:103AA0000A6830B42AB3164C538804EB0010033371
:103AB000446802EB830304F58054A34216D21A68CB
:103AC000013213D04FF6FF759A881888AA4204D0A5
:103AD00018B101200B6030BC70475A88033203EBE9
:103AE0008203A34202D21A680132EDD1002030BC19
:103AF0007047034B03EB0010446804F10803DAE756
:103B0000B03000202DE9F047DFF8B0A0DAF81C91C2
:103B1000B9F1090F46D8264EF76FC1F10F039F4246
:103B20000C463FD81546DAF81821224B09EB020C57
:103B3000A3FB0C3E8046B8E80F004FEADE0E0EEB0A
:103B40008E0EACEB4E0ECEEBCE0E0AEB8E0EAEE82A
:103B50000F0098E8070009F10103CAF81C318EE84C
:103B6000070014B3B26F144B3A44A3FB0213DB08F3
:103B7000C3EB0313D31A06EBC303002206F1700E46
:103B800005EBC20103C9734502F1010283E803009A
:103B900014BF0833064BA242F2D13A44F267012027
:103BA000BDE8F0870020BDE8F0870120BDE8F08780
:103BB000C82E0020CDCCCCCC89888888842F0020CA
:103BC000F8B50D4C0D4B628803EB021293895BB183
:103BD0000B4D0C4829680227052601220023AF80DF
:103BE000267001F0A3F8F8BD51680648012201F0E3
:103BF0009DF804232370F8BD702F0020B030002002
:103C0000A43000200821002000B5064B064A1968A0
:103C1000064883B000230093022301F03DF803B06F
:103C20005DF804FBA4300020CCC002000821002075
:103C300010B582B000230C4600930146074A08489D
:103C4000012301F029F810B10E2002B010BD054B80
:103C500003EB04140123A37302B010BDD4C002000F
:103C600008210020B0300020F0B50A4C0A486268F4
:103C7000878853880168094883B0002603330325E9
:103C80009BB201EB87010096257001F005F803B0A7
:103C9000F0BD00BF702F0020A430002008210020BC
:103CA000074908B548880431FFF7FAFE18B9BDE89E
:103CB0000840FFF785BFBDE80840FFF7D5BF00BF4C
:103CC000702F002070B5436882B01BB1244A14687D
:103CD000A34221D200220C46064613460A8015460E
:103CE000019505E0019B3268996891420ED02388C6
:103CF000184601A9FFF7D4FE0028F3D12388013329
:103D00009BB2082B2380EBD902B070BD154A7360BB
:103D10001389338102B070BD52689342DAD813F030
:103D20000302D7D10F4C05892489A542D2D1056859
:103D30009C68A542CED10C484468A34296B204F5D3
:103D4000805502F1010200F1100001D9AB4203D30A
:103D5000092AF1D10020D7E70E800120D4E700BF67
:103D600008210020702F0020B03000202DE9F843FA
:103D70001F4C2578AC0702D40220BDE8F88382B33B
:103D80007BB39D88082D0ED8DFF86C901C469046BA
:103D90000F4606462B0119F8033043B10135ADB289
:103DA000082DA580F6D90A20BDE8F883A588284605
:103DB0002146FFF775FEB8B123681EB19988328895
:103DC0009142F3D11FB119883A889142EED1094945
:103DD0009A680989A8F8081088E80C000020BDE856
:103DE000F8830520BDE8F883A5882060D6E700BFEA
:103DF00040310020702F0020B03000202DE9F04F1E
:103E0000B34CD4F81851EF007E1BB6008DB0A25D04
:103E1000531E804604EB060BA146052B00F2CA8216
:103E2000DFE803F06544441A1A03002840F0F480E8
:103E3000A84BDA7C002A00F009831A78D874013A7A
:103E4000062A00F2B682DFE812F0DF029902910141
:103E50008701B4029C028902002840F0DE80C5EB95
:103E6000070A4FEA8A0A04EB0A03DFF864C21979E9
:103E7000012900F03183C0F01883022941F61D505A
:103E800018BF0F2041F61D53984200F0CC8019F85E
:103E900006300890023B012B40F2E580013A052AEA
:103EA00036D8DFE802F08FAA937E71327B1B04EBD9
:103EB000830303F108018848B1F80AA000EB0A1A4D
:103EC000B8F1000F40F0BA80BAF80800DAF8043010
:103ED000097A03EB8003062900F21683DFE811F06C
:103EE00049011E02FF01AB0192017E017B01002806
:103EF00040F09C809BF80430032B00F23783DFE80E
:103F000013F0D500BC001B01F50005238DF81C3013
:103F1000724D05F1200655F8043F0BB107A89847EC
:103F2000B542F8D1D4F81821694DC2EBC202920013
:103F3000A11801F108030020A050486043F8040BC9
:103F400043F8040B43F8040B43F8040B1860D4F84F
:103F50001C218AB1D5F81811614B0131A3FB014333
:103F6000DB0803EB8303013AA1EB4303C5F81C21F3
:103F7000C5F81831002A71D15A4A137823F0040386
:103F800013700DB0BDE8F08F7B1B04EB830304229C
:103F9000DB88ADF8283000238DF81C20ADF82A30DE
:103FA000B6E77B1B04EB83031A46DB8832F8081F55
:103FB000ADF82830536809930323ADF82A108DF823
:103FC0001C30A5E700238DF81C30A1E77B1B04EB18
:103FD00083031A7C1889DD6899880995A2F1060384
:103FE0000222B3FA83F35B098DF82C30ADF8280078
:103FF000ADF82A108DF81C208AE77B1B04EB8303A5
:10400000012218899988DB68ADF82800ADF82A10DC
:1040100009938DF81C207BE70622012041F61D53F1
:1040200098427FF434AF0023089337E72D490B788B
:10403000012223F001030B70104623E7D888BAF859
:104040000A30BAF8081000F1030E1B1A7144033B42
:10405000AAF80810AAF80A30012013E7FFF7CEFEED
:104060000DB0BDE8F08F204B9BF81660986FD96FAC
:104070003044891B9867D96710E7174900224FEA37
:104080000218DFF854A018F80130022B00F04C821F
:104090000132092AF3D1134A137843F0020323F0C3
:1040A00001031370012241F61D50EBE6FFF7ACFD52
:1040B00001238BF8043000283FF463AF7B1B14F816
:1040C000232008490B7823F001030B700E20D9E65A
:1040D000842F0020702F0020B0300020442F0020BB
:1040E000CDCCCCCC40310020C82E0020DFF8E482BB
:1040F000B14AD8F80010B1484FF0000A0223CDF8B9
:1041000000A000F0C9FDAE4BDFF8CCC25B88D8F848
:104110000010B8F804E08BF804A01B010CEB0302BC
:104120000CF803A05368C8F8003002235160A2F8CD
:1041300008E0A8F80430BEE7DFF898829F48D8F876
:1041400000100122002300F0F1FD02220023A8F854
:1041500004208BF80430AEE7FFF732FD00283FF46F
:1041600010AF1C2303FB05F3E25C8BE6FFF77CFD3D
:10417000F4E7C5EB070C4FEA8C0804EB080C0020B1
:1041800019460CF10402009001238C48CDF808C0B8
:1041900000F082FDDDF808C002238CF81030002802
:1041A0003FF4EFAE874B13F808200E20C5EB070E47
:1041B00004EB8E0EBAF80A30BEF806E0BAF8081022
:1041C0000EF1030CCEEB03036144033BAAF8081085
:1041D000AAF80A3056E641F61D50E7E77A4A7B4BCB
:1041E00050681988FFF724FD7B1B04EB830306222C
:1041F0001A74744A00283FF4C4AE1C2303FB05F371
:10420000D25CD3E77A1B4FEA820804EB08016E4ABE
:10421000886910604FF0000E6C4902931046C2F896
:1042200004E0FFF74FFD029B0028A2D1654B0A2056
:1042300013F8082026E6DFF8A4E1DEF87C10002958
:1042400000F06081DEF878805C485EF838200592E6
:10425000C5EB070C04EB8C0C5D4ACDF808C008F1E7
:10426000010C0EEBC808CDF80C80A2FB0C82D20822
:104270000492029A90460139049ACEF87C10B8F85C
:1042800014100491C2EB02120399C2EB0C0CCEF88D
:1042900078C0B1F804E00499059A4FF0000C03EBE4
:1042A0008101CDF800C0734600F0F6FC039A98F83F
:1042B00016309188B8F81420013B0A44DBB2A8F804
:1042C000142088F8163013B9029A012313740028B9
:1042D0003FF457AE7B1B0E2014F8232066E7C5EB96
:1042E00007084FEA8808002004EB080203F10801E0
:1042F0000C3200900123314800F0CEFC04EB08039F
:1043000030499A7D002A14BF032201221A74002822
:104310003FF437AE11F808200E2047E77A1B4FEA2A
:10432000820C04EB0C0808F108080020191D424615
:10433000012300902148CDF808C000F0ADFCDDF865
:1043400008C014F80C20032A0CBF0523062388F8A4
:10435000083000283FF415AE0E2027E70721002281
:1043600019705A60FFF750FCF8E61A4958688A88B5
:1043700040880244033202208A801870FFF790FCC4
:10438000ECE65A88144912010A4400204FF0060E48
:1043900051680090084A83F800E00848022300F0C2
:1043A0007BFC00283FF4EDAD1C2303FB05F3E25C2E
:1043B0006DE506220F2065E5D8C002000821002027
:1043C000702F0020842F00204C310020AC300020C2
:1043D00089888888A4300020B0300020C82E0020B2
:1043E0001A89DFF890E16249002001321A81588071
:1043F000D874425CB2FA82F21030520990280EF85A
:10440000012FF6D101221A7000225A4858499046CD
:10441000AE4610F8015F1FFA82FC3DB18D8980F82D
:1044200000801DB98D7B002D40F09A800132092A51
:1044300001F11001EDD175467A1B002114F82220FC
:1044400019705980596041F61D501BE51A78072AEA
:104450003FF6F5AC01A151F822F000BFE1430200A4
:104460003F3E02003F3E02006B4302007D440200DB
:104470005D4302005D430200054402005A883C4946
:10448000DFF800E1120101EB020CDEF80000DCF8BD
:1044900004A0BEF80480CCF804000220CEF800A0EE
:1044A000ACF80880AEF804006EE70CA8DA6840F8B3
:1044B000142D0DF11A010293CDF82080CDF824803F
:1044C000FFF700FC029B002840D10A207B1B04EB75
:1044D000830302221A7141E6981D4146264BCDF80E
:1044E00008C007AAFFF742FCDDF808C0224B68B1FC
:1044F0000A28C3F80080C3F804801CF80A207FF45F
:10450000C1ACD0E50B68FFDE0F204FE69988089814
:10451000FFF78EFB0A28DDF808C07FF41FAE1CF8F9
:104520000A2041F61D50ADE40AEB08024FF0000CE2
:1045300051681248CDF800C0114ACDF808C000F00B
:10454000ABFBDDF808C00AF808C0B4E50898BDF870
:104550001A108288DA8002881A81FFF769FBB5E7B2
:10456000A3F802C07546FFF79BFBF7E50122A8E51B
:10457000B0300020792F0020443100200821002095
:10458000D8C00200A43000200846FFF737BC00BFA7
:1045900006490B7803F0040202F0FF0002B17047F5
:1045A00043F004030B70FFF729BC00BF403100202B
:1045B0002DE9F0434B4C2478A5078BB003D402209F
:1045C0000BB0BDE8F0830D4671B1B1F800E04FF6D5
:1045D000FF718E4504D0B5F802C0BCF1000F05D1C3
:1045E00004200BB0BDE8F0830520E9E729896F6856
:1045F00006468846002954D0386810F0030004D0DD
:104600003BE057F83040A40737D101308142F8D160
:10461000002A5CD0B2F800905488ADF80A903A466F
:10462000314DADF81E9028688DF80C30032701300D
:104630004FF00009BB428DF82210ADF814E0ADF840
:1046400010C0ADF81240286006908DF81C90ADF8AF
:10465000207020D00025414603A8ADF81650FFF782
:1046600051FA60B9BDF80A20204B03EB0213082071
:104670005A89033A121B5A81A2E70320A0E736B1F8
:104680001B4A069B1289B572756032813360FFF751
:104690007FFF002094E7042133688DF81C100993F4
:1046A000D8E7002AB6D1144620460DF10A0101933D
:1046B000FFF7C8F9002883D12989BDF80A90B5F819
:1046C00000E0B5F802C06A68019B8846A8E707EBDE
:1046D000C1011446BA88083722448F4294B2F9D1F6
:1046E000E2E700BF403100206C2F0020B0300020F6
:1046F000702F0020074A1378082B09D010B4591CDA
:10470000054C117044F8230000205DF8044B7047FD
:104710000C207047682F0020482F00202DE9F04F13
:104720006C4F8FB03A780023029303930493059360
:10473000069393070DD5684C04F1200554F8043F07
:1047400002A803B19847AC42F8D100200FB0BDE8F1
:10475000F08F12F00104F8D142F001023A70DFF854
:104760008891DFF88881DFF888B100F039FA0122FA
:104770000194264625468DF81C20D9F800301A5998
:10478000424503EB040E2BD0AEF104030EF6FC7190
:1047900001E08B4262D053F8042F0132F9D02B0193
:1047A000032201350BF80320ADB204F58054B4F5B3
:1047B000204FE2D1F6B20B2E0AD8DFE806F0647F74
:1047C000647F097B6A7B0906660603238DF8203027
:1047D00000210A4607A8FFF795F9FFF7D9FEB4E7CD
:1047E000DEF804303D4A934224D001329342CBD1CB
:1047F000019B83B9DFF8ECA03949CAF800E07046A4
:104800000022FFF7E1F8BAF80430022B0CBF0423B2
:1048100008231E43C9E72801DFF8C8A00BEB0003FB
:1048200002220135DAF800100BF80020ADB2596011
:104830001A81E1E72A010BEB020302F10801594456
:1048400000200BF80200C3F804E070468A1D013511
:10485000FFF7BAF846F00206ADB2A6E7214B1A6898
:1048600082B32B010BEB03010222DFF888C00BF8A7
:104870000320681CACF80250C1F804E00A8185B23C
:1048800046F0010691E70B2060E702238DF8203007
:104890009EE73B78104C43F0020323F001033B708A
:1048A00004F1200554F8043F02A803B19847AC4234
:1048B000F8D14AE701238DF8203089E700238DF8ED
:1048C000203085E70222C3F800E09A80012301939B
:1048D000D6E700BF40310020442F0020FE011EF12A
:1048E000A8300020A430002008210020DEC0ADDE6A
:1048F000B0300020702F002060B159B1F0B583B006
:104900000C460DF106010546FFF7DCF920B90A2037
:1049100003B0F0BD05207047BDF80620074B69685D
:1049200003EB021301269A8901F10C07324400209F
:104930009A8184E88200AE7203B0F0BDB0300020EE
:10494000D0B110B582B00DF106010446FFF7BAF9F7
:1049500010B90A2002B010BDBDF80620094B03EBC8
:10496000021308339A884AB1A17A39B10021013A79
:104970009A800846A172EDE705207047062002B034
:1049800010BD00BFB030002000220223FFF710BE90
:1049900018B100220323FFF70BBE0520704700BFAC
:1049A000104B1B789B0701D40220704798B110B5BB
:1049B00088B00368049300240423214622460DEBAB
:1049C00003008DF808408DF80430FFF79BF820B9FC
:1049D000082008B010BD05207047FFF7D9FD20461C
:1049E000F7E700BF40310020114B1B789B0701D433
:1049F0000220704730B54FF6FF73984289B00446E5
:104A000002D1042009B030BD0021052501230A464A
:104A100001A8ADF80A408DF804508DF80830FFF772
:104A200071F808B90820EDE7FFF7B2FD0020E9E7CB
:104A3000403100200E4B1B789B0701D402207047A9
:104A400000B589B008A80623002100F81C3D0A46DD
:104A5000FFF758F818B9082009B05DF804FB054BBA
:104A60001A780AB10122DA74FFF792FD0020F3E709
:104A700040310020702F002010B582B002AC1346E8
:104A800024F8020D0A4600202146FFF76FF902B014
:104A900010BD00BF29DF704728DF7047084A536EFA
:104AA000013B536623B907490B7823F002030B70CF
:104AB000136E034A0133042B08BF002313667047AB
:104AC0005C3100205831002070B50C4D696E04290E
